:100000000C94D2000C94FA000C94FA000C94FA00B0
:100010000C94FA000C94FA000C94FA000C94FA0078
:100020000C94FA000C94FA000C94E2010C944B022C
:100030000C94FA000C94FA000C94FA000C94FA0058
:100040000C94FA000C94FA000C94FA000C94FA0048
:100050000C94FA000C94FA000C94FA000C94B90574
:100060000C94FA000C94FA000C94FA000C94FA0028
:100070000C94FA000C94FA000C94FA000C94FA0018
:100080000C94FA000C94FA000C94FA000C94FA0008
:100090000C94FA000C94FA000C94FA000C94FA00F8
:1000A0000C94FA000C94FA000C94FA0059065C06C1
:1000B0004B064F0653067D067D067D0660066406E8
:1000C00068066E0672067D067806000000002400B1
:1000D00027002A002D003000080B00020202010058
:1000E000090400000102020000052400100105249B
:1000F000010101042402060524060001070581030D
:1001000010004009040100020A0000000705020275
:1001100040000007058302400000040309041201A7
:100120000002EF0201409A230C800001010203014A
:1001300041646166727569740046656174686572D0
:100140002033327534000000000200090F00000364
:100150000401000C0000040802011040804010203F
:10016000408040800802040180402010020110807D
:100170001020404000000000250028002B002E0029
:10018000310004040404040304050202020204030F
:100190000202020206060606060604040202020421
:1001A000CA0ABA0A11241FBECFEFDAE0DEBFCDBF04
:1001B00011E0A0E0B1E0E6E4F9E102C005900D92A3
:1001C000AC36B107D9F721E0ACE6B1E001C01D9231
:1001D000A43FB207E1F710E0C1EDD0E004C02197E1
:1001E000FE010E946A0BC03DD107C9F70E947E093B
:1001F0000C94960C0C940000CF93DF931F92CDB714
:10020000DEB76983DC01ED91FC910280F381E02D82
:1002100041E050E0BE016F5F7F4F09950F90DF9185
:10022000CF91089583E08093E9008091F2008823C4
:1002300019F08AE38093E8000895FC018485958590
:1002400097FD0BC09FB7F89482E08093E9008091FE
:10025000F2009FBF90E0019608959FB7F89482E066
:100260008093E9008091F2009FBF90E00895089587
:1002700080E090E0089540917701509178012091BD
:1002800075013091760142175307B4F49091E8005C
:100290009570E1F39091E80092FD19C08093F10010
:1002A000809177019091780101968F739927892B1E
:1002B00019F48EEF8093E800809177019091780196
:1002C0000196909378018093770181E0089580E012
:1002D0000895DF92EF92FF920F931F93CF93DF93D6
:1002E000D82E8A017B01E40EF51EEB01CE15DF0549
:1002F00071F0D7FE03C0FE01849101C088810E9485
:100300003B0121968111F2CF8FEF9FEF01C0C80111
:10031000DF91CF911F910F91FF90EF90DF900895A3
:100320000E94240990E00895FC018485958597FD3D
:1003300005C02FEF3FEF3587248708950C94EB0815
:10034000CF93DF93EC018C859D8597FF04C00E94BD
:10035000EB089D878C878C859D85DF91CF910895D3
:100360000F931F93CF93DF931F92CDB7DEB782E039
:10037000898342E450E068ED70E080E80E94690102
:100380000E943509DC0112960D911C9113970115FD
:10039000110589F0D801ED91FC910280F381E02DE7
:1003A000BE016F5F7F4FC801099597FD04C0F8013A
:1003B00000851185ECCF89810F90DF91CF911F913E
:1003C0000F9108951F920F920FB60F9211248F93E1
:1003D0009F938091E1009091E100937F9093E100E1
:1003E00083FF0FC01092E90091E09093EB00109210
:1003F000EC0092E39093ED0010927E0198E09093D0
:10040000F00082FF1CC093E09093E9009091F2000D
:10041000992319F09AE39093E80090917B01992336
:1004200029F090917B01915090937B0190917D01F7
:10043000992329F090917D01915090937D0184FF43
:1004400010C08091E2008E7E81608093E2008091F6
:10045000E1008F7E8093E10080917C018E7E80613F
:1004600011C080FF11C08091E2008E7E8061809378
:10047000E2008091E1008E7E8093E10080917C011A
:100480008E7E816080937C019F918F910F900FBE33
:100490000F901F9018951F920F920FB60F92112474
:1004A000CF92DF92EF92FF920F931F932F933F9380
:1004B0004F935F936F937F938F939F93AF93BF936C
:1004C000EF93FF93CF93DF93CDB7DEB76C97DEBF8B
:1004D000CDBF1092E9008091E80083FF0BC289E054
:1004E000FE017596EE2EDF2E815029F09091F100DD
:1004F00090833196F9CF84E680937D0182EF8093DB
:10050000E8008D8987FF05C09091E80090FFFCCF3F
:1005100003C09EEF9093E800982F907609F0C5C035
:100520009E894F89588D2F89F88C91110CC0803885
:1005300029F480917A018093F10002C01092F100B9
:100540001092F1004BC1913051F4811147C14130FB
:10055000510509F043C180917A018D7F0BC0933022
:1005600061F481113BC14130510509F037C18091DF
:100570007A01826080937A0131C1953049F480918B
:10058000E80080FFFCCF822F80688093E30026C1C3
:10059000963009F05DC00B8D1C8D22E01092E900B1
:1005A0001092780110927701F21232C01092760107
:1005B000109275010E94B00199E0BE016F5F7F4FFC
:1005C000DB01E92F1D92EA95E9F79983FA8291E020
:1005D0009E8390EA98879AEF9987209177013091CE
:1005E0007801275F3F4F3C832B838D831092E90076
:1005F00010927801109277011093760100937501A3
:1006000049E050E080E00E9469010E94B001E6C02C
:1006100010937601009375010E943509DC01129652
:100620000D911C9113970115110509F4C1C0D80152
:10063000ED91FC910480F581E02D6E2D7D2DC8019A
:100640000995009709F0CEC0F80100851185EBCF20
:10065000973009F44CC1983021F481E08093F10087
:10066000BDC0993009F0BAC0837009F040C1E3E51C
:10067000F1E081E031E096E32081211109C08EE7AD
:100680008093EA001092EA008F8980937E01A6C0D1
:100690008093E9003093EB0021912093EC0090933C
:1006A000ED008F5F873041F7EACF8B8D9C8D1092E4
:1006B000E90010927801109277019093760180936F
:1006C0007501898D81115BC08E899D89913A49F4AC
:1006D000813209F00CC147E050E064E471E080E051
:1006E000C2C0913209F003C1833269F48F89988DB9
:1006F000A0E0B0E08093400190934101A0934201BB
:10070000B09343016BC08032A9F48091E80082FF6E
:10071000FCCF88E0E4E4F1E0815029F09091F10011
:1007200090833196F9CF84E680937D018BEF80939F
:10073000E80054C0823209F051C08F8980934B0188
:10074000EEEFFFE7859194918B3F9C4D19F0E0E02F
:10075000F8E002C0EEEFFAE080914401909145018B
:10076000A0914601B0914701803B9440A105B1059D
:1007700009F09DC080914B0180FF78C098C00E9415
:100780003509FC01028113810115110509F4AFC07F
:10079000D801ED91FC910190F081E02D6E2D7D2D21
:1007A000C801099581111AC0F80100851185ECCFA7
:1007B000F1E0FF1609F44EC0F3E0FF1298C08F89F4
:1007C000882309F44AC0823089F440E86CE089E368
:1007D00091E00E944909882309F489C08EEF809333
:1007E000E80088C018161906CCF381C0813029F4BE
:1007F00040E868E080E391E0ECCF833009F077C017
:100800000E943509DC011296ED90FC9013978E0141
:100810000F5F1F4F6801E114F10479F0D701ED91EA
:10082000FC910680F781E02DB801C7010995080FFA
:10083000111DF701E084F184EECFD8011C92F6017E
:1008400001900020E9F73197BF016C197D0940E064
:10085000C601BFCF6EE171E002C06AE171E0FB0149
:10086000449150E080E80E946901B8CFEE3F2AE051
:10087000F20751F0808191818737A7E79A0721F02D
:100880009093FF0A8093FE0A87E797E7918380831E
:1008900080916000809379019BE088E10FB6F89425
:1008A000A895809360000FBE9093600097CF8081E1
:1008B00091818737974709F091CFA8958091600083
:1008C0008861809360008091790180936000EE3FA1
:1008D000BAE0FB0739F08091FE0A9091FF0A9183FC
:1008E00080837CCF1092FF0A1092FE0A77CF81E2BC
:1008F0008093EB006C960FB6F894DEBF0FBECDBFB1
:10090000DF91CF91FF91EF91BF91AF919F918F9127
:100910007F916F915F914F913F912F911F910F9117
:10092000FF90EF90DF90CF900F900FBE0F901F9031
:100930001895CF93DF9390E0FC01EA5AFE4F249183
:10094000FC01EE57FE4F8491882361F190E0880FFF
:10095000991FFC01E653FF4FC591D491FC01EC585F
:10096000FE4FA591B491611109C09FB7F894888199
:10097000209582238883EC912E230BC0623061F492
:100980009FB7F8948881322F309583238883EC9128
:100990002E2B2C939FBF06C08FB7F894E8812E2B87
:1009A00028838FBFDF91CF9108953FB7F89480914E
:1009B000710190917201A0917301B091740126B5FB
:1009C000A89B05C02F3F19F00196A11DB11D3FBF87
:1009D000BA2FA92F982F8827820F911DA11DB11D15
:1009E000BC01CD0143E0660F771F881F991F4A9510
:1009F000D1F708958F929F92AF92BF92CF92DF92DC
:100A0000EF92FF926B017C010E94D5044B015C01C7
:100A1000C114D104E104F104F1F00E94D504DC0119
:100A2000CB0188199909AA09BB09883E9340A10501
:100A3000B10570F321E0C21AD108E108F10888EE8F
:100A4000880E83E0981EA11CB11CC114D104E104DE
:100A5000F10419F7DDCFFF90EF90DF90CF90BF90BA
:100A6000AF909F908F9008958F929F92AF92BF9278
:100A7000CF92DF92EF92FF920F931F93CF93DF936A
:100A80006C017B018A0180914B01882309F45BC0D2
:100A900080917E01882309F456C080917C0180FFFB
:100AA00005C08091E00082608093E000E801B12CF5
:100AB0008AEFA82E93E0892E2AE3922E209711F434
:100AC000BB20D9F10E94240981110AC0AA94AA204E
:100AD000D1F161E070E080E090E00E94FA04EECF96
:100AE000282F30E0C217D3070CF48C2F9FB7F8944F
:100AF0008092E9002091E80025FF1DC0282F30E0FA
:100B0000C21BD30BF701815020F041914093F100BB
:100B1000FACFE20EF31EBB2019F09092E8000AC053
:100B20008091E80085FD07C09092E800BB24B39453
:100B3000209709F0B12C9FBFC1CF84E680937B0141
:100B40001016110644F081E090E0F6019383828351
:100B500080E090E001C0C801DF91CF911F910F911B
:100B6000FF90EF90DF90CF90BF90AF909F908F90CD
:100B700008951F920F920FB60F9211242F933F9357
:100B80008F939F93AF93BF9380916D0190916E016E
:100B9000A0916F01B091700130916C0126E0230F9C
:100BA0002D3720F40296A11DB11D05C029E8230FA1
:100BB0000396A11DB11D20936C0180936D0190934C
:100BC0006E01A0936F01B0937001809171019091BB
:100BD0007201A0917301B09174010196A11DB11D24
:100BE0008093710190937201A0937301B09374018B
:100BF000BF91AF919F918F913F912F910F900FBE19
:100C00000F901F901895CF92DF92EF92FF920F9363
:100C10001F93CF93DF936C017A018B01C0E0D0E08A
:100C2000CE15DF0581F0D8016D918D01D601ED91D2
:100C3000FC910190F081E02DC6010995892B11F0FE
:100C40002196EECF7E01C701DF91CF911F910F91C9
:100C5000FF90EF90DF90CF9008950E94910C90E06C
:100C6000FC01EA5BFE4F4491FC01EA5AFE4F2491DD
:100C7000FC01EE57FE4F8491882309F44DC04423B4
:100C8000E1F150E0FA013197EF30F105B0F5EA5AA1
:100C9000FF4F0C946A0B909180009F7707C0909152
:100CA00080009F7D03C090918000977F909380008B
:100CB00024C094B59F7702C094B59F7D94BD1DC09C
:100CC000909190009F7707C0909190009F7D03C006
:100CD00090919000977F909390000FC09091C000EA
:100CE0009F7703C09091C0009F7D9093C00005C086
:100CF0009091C200977F9093C200E82FF0E0EE0F32
:100D0000FF1FEC58FE4FA591B4919FB7F8948C91BA
:100D1000209528232C939FBF08950F931F93CF9363
:100D2000DF93CDB7DEB729970FB6F894DEBF0FBEBD
:100D3000CDBF0E94D50400918D0110918E012091AC
:100D40008F0130919001DC01CB01801B910BA20B34
:100D5000B30B8C329140A105B10558F3F894809102
:100D60008301909184019A838983A0918701B09136
:100D70008801FD0131968C91898780917F01A09136
:100D80009101B0919201882309F473C11B82AB32A7
:100D9000B10509F058C09BB180919301982B9887B9
:100DA0009BB1809589238F838F818C83898587FF71
:100DB00002C088858C8358856F8149853C812B8151
:100DC00089819A815BB9262F3BB900C046FD252F4A
:100DD0006BB900C05BB9362F2BB900C045FD352F6C
:100DE0006BB900C05BB9262F3BB900C044FD252F6D
:100DF0006BB900C05BB9362F2BB900C043FD352F4E
:100E00006BB900C05BB9262F3BB900C042FD252F4E
:100E10006BB900C05BB9362F2BB900C041FD352F2F
:100E20006BB900C05BB9262F3BB900C040FD252F30
:100E30006BB901975BB9362F2BB9419147FD352F1F
:100E40006BB901F612C1A532B10509F058C095B1D0
:100E500080919301982B988795B1809589238F83F2
:100E60008F818C83898587FF02C088858C83588514
:100E70006F8149853C812B8189819A8155B9262FC3
:100E800035B900C046FD252F65B900C055B9362FCC
:100E900025B900C045FD352F65B900C055B9262FCD
:100EA00035B900C044FD252F65B900C055B9362FAE
:100EB00025B900C043FD352F65B900C055B9262FAF
:100EC00035B900C042FD252F65B900C055B9362F90
:100ED00025B900C041FD352F65B900C055B9262F91
:100EE00035B900C040FD252F65B9019755B9362F9A
:100EF00025B9419147FD352F65B901F6B6C0A83235
:100F0000B10509F058C098B180919301982B98874A
:100F100098B1809589238F838F818C83898587FF02
:100F200002C088858C8358856F8149853C812B81DF
:100F300089819A8158B9262F38B900C046FD252FDE
:100F400068B900C058B9362F28B900C045FD352F03
:100F500068B900C058B9262F38B900C044FD252F04
:100F600068B900C058B9362F28B900C043FD352FE5
:100F700068B900C058B9262F38B900C042FD252FE6
:100F800068B900C058B9362F28B900C041FD352FC7
:100F900068B900C058B9262F38B900C040FD252FC8
:100FA00068B9019758B9362F28B9419147FD352FB7
:100FB00068B901F65AC0D19709F08BC091B38091FE
:100FC0009301982B988791B3809589238F838F8184
:100FD0008C83898587FF02C088858C8358856F81C3
:100FE00049853C812B8189819A8151BB262F31BB58
:100FF00000C046FD252F61BB00C051BB362F21BB71
:1010000000C045FD352F61BB00C051BB262F31BB51
:1010100000C044FD252F61BB00C051BB362F21BB52
:1010200000C043FD352F61BB00C051BB262F31BB33
:1010300000C042FD252F61BB00C051BB362F21BB34
:1010400000C041FD352F61BB00C051BB262F31BB15
:1010500000C040FD252F61BB019751BB362F21BB3E
:10106000419147FD352F61BB01F649873C832B83B6
:101070002EC09C9180919301982B98879C9180958C
:1010800089238F838F818E8388E08D8358856F813C
:1010900049853D812E8189819A815C9347FD252F69
:1010A0002C93262F3A9531F0441F6C9300C000C05A
:1010B00000C0F3CF6C93000038E04191019769F7CD
:1010C000B0939201A093910149873D832E839A8327
:1010D000898378940E94D50460938D0170938E016A
:1010E00080938F019093900129960FB6F894DEBFFC
:1010F0000FBECDBFDF91CF911F910F9108958F92B9
:101100009F92AF92BF92CF92DF92EF92FF92CF93D6
:10111000DF934B01AA24BB24F82DC52ED62EE72E33
:10112000FF24AC2DE42F20918601222361F0829EC2
:1011300040011124F92D2C9D60011124AD2D249F17
:10114000E0011124ED2F30918C01B0918901E090E4
:101150008701F09088013B1308C09C01220F331FC8
:10116000820F931F8E0D9F1D19C0880F991F880F26
:10117000991F8E0D9F1D472F552766277727EC0156
:10118000C30FD11D222349F030E0249F7001259F19
:10119000F00C349FF00C11244F2D488320918901CD
:1011A000EC01C20FD11DF88320918A01EC01C20F1E
:1011B000D11DA88320918B01DC01A20FB11DEC93FE
:1011C000DF91CF91FF90EF90DF90CF90BF90AF90E5
:1011D0009F908F900895CF93DF931F92CDB7DEB786
:1011E00080917E01811103C08FEF9FEF29C03FB72F
:1011F000F89482E08093E9008091F20090E0181664
:10120000190614F481E090E0282FFE01319644E69F
:10121000215030F040937D015091F1005193F8CF6F
:10122000009721F02091F200222331F03FBF019777
:10123000D9F6898190E004C02BE62093E800F6CF30
:101240000F90DF91CF9108952FB7F89483E08093AA
:10125000E9009091E800892F807295FF04C0909179
:10126000F20080E4891B2FBF0895809198018111BD
:101270000DC082E08093940184E0809395011092E8
:1012800097011092960181E08093980184E991E0A2
:101290000895DF92EF92FF920F931F93CF93DF9306
:1012A000D82EF92EE42E062F10E0C8010196880FE3
:1012B0000E943B0183E00E943B01CD2DDF2D0C0FEE
:1012C0001D1FC017D10789F0E7FE03C0FE018491FE
:1012D00001C088810E943B01F82E80E00E943B0102
:1012E0008F2121968111EDCF01C081E0DF91CF9157
:1012F0001F910F91FF90EF90DF900895789484B53F
:10130000826084BD84B5816084BD85B5826085BD01
:1013100085B5816085BD80916E00816080936E008F
:101320001092810080918100826080938100809181
:101330008100816080938100809180008160809332
:101340008000809191008260809391008091910053
:1013500081608093910080919000816080939000E3
:101360008091C10084608093C1008091C10082603F
:101370008093C1008091C10081608093C100809101
:10138000C30081608093C3008091C000826080931D
:10139000C0008091C20081608093C20080917A0079
:1013A000846080937A0080917A00826080937A00D2
:1013B00080917A008E7F80937A0080917A00806895
:1013C00080937A0010927E0110927A0110927C0133
:1013D0008091D70081608093D70080EA8093D80005
:1013E00089B58F7E89BD89B5826089BD09B400FE4B
:1013F000FDCF61E070E080E090E00E94FA0480910F
:10140000D8008F7C80618093D8008091E000807F3D
:101410008093E0008091E1008E7E8093E1008DE07A
:101420008093E2008091850187FD07C061E00E9402
:101430009904809185010E942F0681E080938001AC
:101440008091870190918801892B11F00E948D066F
:1014500060918601693221F12091870130918801E4
:10146000615031F070E08FEF98E20E94420B02C0B1
:1014700060E070E0F9014091830150918401CF0157
:10148000821B930B8417950740F44081469FC0014F
:10149000479F900D11249193EECF89E280938601AE
:1014A00097E0892E912C20E0C22E20E0D22EC0E0C1
:1014B000D1E08E01612C712C530188E0A80EB11C83
:1014C0007801F701219131917F0180918101909103
:1014D00082012130310541F46816790670F440E04C
:1014E00050E06FEF70E006C06816790630F440E017
:1014F00050E0BA01C3010E947F08FFEF6F1A7F0A14
:101500006A147B04F1F6005F1F4F80E268167104D5
:1015100099F68091870190918801892B11F00E94A2
:101520008D068E0120E030E02F5F3F4FC901B401EE
:101530000E94560BFC01EE0FFF1FEC0FFD1F808178
:101540009181F801819391938F012830310561F7E2
:101550006096F1E0C034DF0721F764EF71E080E0CE
:1015600090E00E94FA04C114D10409F4A0CF0E94B3
:1015700000009DCF8091870190918801009711F024
:101580000E94080C8091850187FD03C060E00C94E7
:10159000990408951092A3011092A20188EE93E09D
:1015A000A0E0B0E08093A4019093A501A093A601D0
:1015B000B093A7018DE591E09093A1018093A001E4
:1015C0008FEF9FEF9093AD018093AC01109280015B
:1015D0001092860110928D0110928E0110928F014F
:1015E0001092900181E080938C0180938901109288
:1015F0008A0192E090938B0180937F0180E690E0D6
:1016000090938401809383010E94700B90938801D2
:1016100080938701009761F020E6FC0111922A95E2
:10162000E9F780E290E0909382018093810108C005
:101630001092840110928301109282011092810114
:1016400086E08093850180918001882339F061E0F4
:1016500086E00E94990486E00E942F06E8E8F1E007
:10166000E491F0E0EE0FFF1FEC58FE4F859194914E
:101670009093920180939101ECE5F1E0E491E09385
:1016800093010895AA1BBB1B51E107C0AA1FBB1FF2
:10169000A617B70710F0A61BB70B881F991F5A95FE
:1016A000A9F780959095BC01CD01089597FB072E71
:1016B00016F4009407D077FD09D00E94420B07FC76
:1016C00005D03EF4909581959F4F08957095619552
:1016D0007F4F0895EE0FFF1F0590F491E02D0994C0
:1016E0000F931F93CF93DF938230910510F482E024
:1016F00090E0E091F201F091F30120E030E0A0E011
:10170000B0E0309719F1408151810281138148176F
:101710005907C8F08417950769F4109731F01296AD
:101720000C93129713961C9327C00093F201109309
:10173000F30122C02115310519F04217530718F49F
:101740009A01BD01EF01DF01F801DBCF2115310561
:10175000F9F0281B390B2430310580F48A819B81F4
:101760006115710521F0FB019383828304C090937E
:10177000F3018093F201FE01329644C0FE01E20FB4
:10178000F31F8193919322503109398328833AC002
:101790002091F0013091F101232B41F420914E0171
:1017A00030914F013093F1012093F00120914C01D1
:1017B00030914D012115310541F42DB73EB74091CF
:1017C000500150915101241B350BE091F001F09133
:1017D000F101E217F307A0F42E1B3F0B281739077E
:1017E00078F0AC014E5F5F4F2417350748F04E0F7D
:1017F0005F1F5093F1014093F0018193919302C0D8
:10180000E0E0F0E0CF01DF91CF911F910F910895BB
:10181000CF93DF93009709F481C0FC0132971382C4
:101820001282A091F201B091F301109781F420810E
:101830003181820F931F2091F0013091F10128171F
:10184000390751F5F093F101E093F00167C0ED0124
:1018500020E030E0CE17DF0740F44A815B819E0133
:1018600041155105F1F0EA01F5CFD383C2834081E0
:101870005181840F951FC817D90759F48881998120
:10188000840F951F0296918380838A819B81938325
:1018900082832115310529F4F093F301E093F201DD
:1018A0003DC0E901FB83EA8349915991C40FD51FDB
:1018B000EC17FD0761F480819181840F951F0296DA
:1018C000E90199838883828193819B838A83E0E005
:1018D000F0E012968D919C911397009719F0FD01FD
:1018E000DC01F7CF8D919C9111979D012E5F3F4FA9
:1018F000820F931F2091F0013091F10128173907D1
:1019000069F4309729F41092F3011092F20102C0A9
:1019100013821282B093F101A093F001DF91CF9175
:10192000089581E090E0F8940C94960C10E0C1EDDD
:10193000D0E004C0FE010E946A0B2196C23DD1078F
:06194000C9F7F894FFCF87
:10194600000001000000010000000100000000008E
:10195600000001000000010000000000000000007F
:10196600000001000100010000000100000000006D
:10197600000001000000010000000100000000005E
:10198600FFFFFFFF00E10000000000000000F4017F
:10199600800000C1808100000000000000FC0034CF
:0C19A60005900112011D019401A0010038
:00000001FF
